:020000040800F2
:1000000090070020D5010008990B0008010A00089C
:10001000690B000849070008B3150008000000003C
:10002000000000000000000000000000D5110008E2
:100030004D070008000000002D0C0008E912000820
:10004000EF010008EF010008EF010008290F000888
:10005000EF010008EF010008EF010008EF010008C0
:10006000EF010008EF010008EF010008EF010008B0
:10007000EF010008EF010008EF010008EF010008A0
:10008000EF010008EF010008EF010008EF01000890
:10009000EF010008EF010008EF010008EF01000880
:1000A000EF010008EF010008EF010008EF01000870
:1000B000EF0100084D130008EF010008EF010008F0
:1000C000EF010008EF010008EF010008EF01000850
:1000D000EF010008CD140008EF010008EF0100084F
:1000E000EF010008EF010008EF010008EF01000830
:1000F000EF010008EF010008EF010008EF01000820
:10010000EF010008EF010008EF010008EF0100080F
:10011000EF010008EF010008EF010008EF010008FF
:10012000EF010008EF010008EF010008EF010008EF
:1001300000F002F800F03FF80AA090E8000C8244BA
:100140008344AAF10107DA4501D100F034F8AFF297
:10015000090EBAE80F0013F0010F18BFFB1A43F0A5
:1001600001031847B8190000D8190000103A24BF3D
:1001700078C878C1FAD8520724BF30C830C144BF0C
:1001800004680C607047000000230024002500264E
:10019000103A28BF78C1FBD8520728BF30C148BFEA
:1001A0000B607047642900F07780002070471FB50E
:1001B0001FBD10B510BD00F037F91146FFF7F7FF6E
:1001C00001F078FA00F055F903B4FFF7F2FF03BC31
:1001D00001F0F1F90948804709480047FEE7FEE7CA
:1001E000FEE7FEE7FEE7FEE7FEE7FEE7FEE7FEE7E7
:1001F00004480549054A064B70470000ED12000807
:100200003101000890010020900700209003002099
:1002100090030020704700000FB4044910B503AAF2
:10022000029800F0D3F810BC5DF814FB50000020D9
:100230002DE9F0410E460446002020622046E16888
:10024000884730B3252805D0D4E901219047206A9A
:10025000401CF2E7E168204600278847050018D0D7
:10026000A5F14100192802D820354FF40067324625
:10027000294620462760FFF795FF40B1012804D0AA
:10028000F61D26F007060836D8E7361DD6E72846BD
:10029000DAE7206ABDE8F0812DE9F0410646002446
:1002A00010687529314616A510D0AFF300800028DC
:1002B00002DA404213A507E031688A0701D512A58A
:1002C00002E0490704D511A5012401E0AFF3008045
:1002D00000210A2206F1240709E0B0FBF2FCB0FB82
:1002E000F2F302FB1C00303078541846491C0028F9
:1002F000F3D123462A463046BDE8F04100F00CB861
:10030000000000002D0000002B0000002000000075
:1003100070477047704770472DE9F0470D46994682
:100320009246044600F124080168880604D5E06975
:1003300021F01001216000E00120A84201DD471BEF
:1003400000E00027A1697A1902EB0900081AA061F0
:100350002078C00602D42046AFF30080002608E0D3
:10036000D4E901211AF806009047206A401C761C47
:1003700020624E45F4DB2078C0060AD52046AFF354
:10038000008006E0D4E9012130209047206A401C1B
:100390002062381EA7F10107F4DC07E0D4E901214F
:1003A00018F805009047206A401C2062281EA5F11D
:1003B0000105F3DC2046AFF300802078000602D56B
:1003C0000220BDE8F0870120FBE70000074B70B575
:1003D0000D467B4400F011F80446284600F020F852
:1003E00010B14FF0FF3070BD204670BDC312000049
:1003F00001694A1C02610878704700B58FB0CDE9E9
:1004000001310021059105497944CDE903101146D8
:100410006846FFF70DFF0FB000BD0000E5FFFFFFCE
:10042000007B00F080007047754600F029F8AE466A
:1004300005006946534620F00700854618B020B5F0
:10044000FFF7D6FEBDE820404FF000064FF0000752
:100450004FF000084FF0000B21F00701AC46ACE86C
:10046000C009ACE8C009ACE8C009ACE8C0098D46D9
:1004700070470446AFF300802046FFF7A5FE00005A
:10048000004870472C01002021B1826842F001022F
:10049000826003E0826822F00102826070470000FF
:1004A00010B504461248844208D10121401500F0DD
:1004B000EBFB0021601500F0E7FB17E00D488442DC
:1004C00008D10121001500F0DFFB0021201500F00C
:1004D000DBFB0BE00848844208D10121C80300F08F
:1004E000D3FB00214FF4004000F0CEFB10BD000014
:1004F0000024014000280140003C0140014600204A
:100500008A6802F004020AB1012000E0002070476E
:100510000146C86C80B270470246002013680B4049
:100520000BB1012000E000207047014600208A68DE
:1005300002F008020AB1012000E00020704700002C
:1005400030B502460020002350680F4C20400D7942
:100550000C6844EA05242043506090680B4C20400E
:10056000D1E902542C434D7944EA4504204390607C
:10057000D06A20F470000C7C641EE4B2234340EA8D
:100580000350D06230BD0000FFFEF0FFFDF7F1FF29
:10059000F0B504460D4600200021092D11DDE0686C
:1005A000A5F10A0606EB4607072606FA07F1884377
:1005B000A5F10A0606EB460603FA06F10843E060D9
:1005C0000CE0206905EB4507072606FA07F188438A
:1005D00005EB450603FA06F108432061072A0FDA06
:1005E000606B561E06EB86071F2606FA07F1884346
:1005F000561E06EB860605FA06F10843606322E004
:100600000D2A0FDA206BD61F06EB86071F2606FA87
:1006100007F18843D61F06EB860605FA06F1084364
:10062000206310E0E06AA2F10D0606EB86071F26A4
:1006300006FA07F18843A2F10D0606EB860605FAD5
:1006400006F10843E062F0BD816841F00801816075
:10065000704721B1826842F4A002826003E08268A0
:1006600022F4A00282607047816841F00401816039
:100670007047000000B587B001214FF4017000F011
:10068000F3FA4FF4004000F0D3FA0220ADF8040072
:1006900000208DF8070001A9174800F058F8174806
:1006A000FFF7FEFE002002908DF80C008DF80D0083
:1006B0004FF4602004900020059001208DF8180070
:1006C00002A90E48FFF73CFF01210C48FFF7DCFEB2
:1006D0000A48FFF7B9FF00BF0848FFF726FF0028C8
:1006E000FAD10648FFF7C0FF00BF0448FFF706FF36
:1006F0000028FAD107B000BD0008014000240140E5
:1007000010B5012000F0D0FA002000F0CDFA10BDA5
:1007100008B5014600200090034800900098084466
:1007200000900098008808BD006C004008B50022C9
:100730000092044A0092009A02440092009A1160CA
:1007400008BD0000006C004000BFFEE770472DE9C7
:10075000F041024600250026002000230024002747
:1007600091F803C00CF00F0591F803C00CF0100CC9
:10077000BCF1000F03D091F802C04CEA050591F8D6
:1007800000C0BCF1000F31D0146800202BE04FF006
:10079000010C0CFA00F3B1F800C00CEA03069E420B
:1007A00020D183004FF00F0C0CFA03F7BC4305FA7D
:1007B00003FC4CEA040491F803C0BCF1280F06D1F5
:1007C0004FF0010C0CFA00FCC2F814C00AE091F8DA
:1007D00003C0BCF1480F05D14FF0010C0CFA00FC2E
:1007E000C2F810C0401C0828D1D31460B1F800C072
:1007F000BCF1FF0F34DD546800202EE000F1080C3E
:100800004FF0010808FA0CF3B1F800C00CEA030637
:100810009E4221D183004FF00F0C0CFA03F7BC432A
:1008200005FA03FC4CEA040491F803C0BCF1280F5C
:1008300005D100F1080C08FA0CF8C2F8148091F800
:1008400003C0BCF1480F07D100F1080C4FF00108BC
:1008500008FA0CF8C2F81080401C0828CED3546067
:10086000BDE8F0810246002093680B400BB10120E7
:1008700000E00020704741617047000010B5044659
:100880000723012221460948FFF782FE012107487C
:10089000FFF7DFFE00BF02210448FFF73DFE0028FE
:1008A000F9D00248FFF734FE10BD000000240140DB
:1008B00010B5002009490860022000F0C7FE0120A1
:1008C0000749C1F8B401022000F0C0FE002003492E
:1008D0000860022000F0BAFE10BD0000B481214281
:1008E0000080214210B5002400BF03E0002000F08A
:1008F0005DF8641C042CF9DBFFF7DAFF10BD000083
:100900002DE9FC5F04460D4616461F46DDE90C89BD
:100910000A2095FBF0F100FB115A95FBF0F00A213B
:1009200090FBF1F201FB120B0A2094FBF0F100FBAB
:10093000114001900A2094FBF0F00A2190FBF1F2A3
:1009400001FB12000090174931F81A10164A32F8CC
:100950001920114488B200F029F8124931F81B100F
:10096000114A32F81820114488B200F01FF80D4ADD
:10097000019932F811100C4A32F81720114488B24C
:1009800000F014F8074A009932F81110064A32F8BC
:100990001620114488B200F009F8FFF789FFBDE87E
:1009A000FC9F0000280000203E00002070B5044697
:1009B000002500BF1DE0C4F3C02018B101200E497E
:1009C000086002E000200C490860022000F03EFEB2
:1009D0000120094908310860022000F037FE00209C
:1009E0000649C1F8B8014FF6FF7000EA4404681CDC
:1009F000C5B20C2DDFDB70BDB081214200802142E9
:100A000000BFFEE70146CA1701EB92729210A1EBFC
:100A1000820292B9642091FBF0F200FB121050B9EF
:100A20004FF4C87091FBF0F200FB121008B90120DE
:100A300070470020FCE70120FAE70020F8E70000FB
:100A400008B501210C2000F00FF90320ADF80000DB
:100A500048208DF8030069460648FFF778FE80209D
:100A6000ADF8000048208DF8030069460248FFF702
:100A70006EFE08BD000C01400008014010B50446A0
:100A800014B10120224908702148007848B3802120
:100A90002048FFF7E7FE48B101211F48FFF7E2FEBB
:100AA00020B102211C48FFF7DDFED0B90A2000F07A
:100AB000A7FD00201649087080211648FFF7D2FED6
:100AC00008B9012010BD01211348FFF7CBFE08B97A
:100AD0000220F7E702211048FFF7C4FEA8B903205F
:100AE000F0E780210B48FFF7BDFE01280DD1012161
:100AF0000948FFF7B7FE012807D102210648FFF792
:100B0000B1FE012801D1024908700020DAE7000097
:100B10004800002000080140000C014008B50121F8
:100B2000082000F0A1F84FF4E040ADF800001020DC
:100B30008DF8030003208DF8020069460948FFF78D
:100B400006FE4FF480510748FFF795FE4FF4005121
:100B50000448FFF790FE4FF480410248FFF78BFEF8
:100B600008BD0000000C014000BFFEE72DE9F04188
:100B70000027002600250AE00120FFF77FFE04463B
:100B800004F0010707EB4600C6B2681CC5B2082D89
:100B9000F2DB3046BDE8F0817047000070B50021FF
:100BA00000230F22C47804B3154C246804F4E064D5
:100BB000C4F5E064210AC1F10403CA40447804FA90
:100BC00003F184781440214309010E4C0678A155A5
:100BD000047804F01F050124AC4005786D11AD00C8
:100BE00005F1E025C5F8004109E0047804F01F058F
:100BF0000124AC40044D0678761145F8264070BDBE
:100C00000CED00E000E400E080E100E00249014377
:100C1000024A1160704700000000FA050CED00E088
:100C2000014908627047000000000E427047000052
:100C300001460020034A506820F4404008435060B9
:100C4000704700000010024029B1064AD2690243F1
:100C5000044BDA6104E0034AD2698243014BDA6152
:100C6000704700000010024029B1064A9269024311
:100C7000044B9A6104E0034A92698243014B9A61F2
:100C8000704700000010024029B1064AD2680243B2
:100C9000044BDA6004E0034AD2688243014BDA6015
:100CA00070470000001002400149086070470000D2
:100CB0004004424210B501460022002300204A11A0
:100CC000012A02D1094C236806E0022A02D1074C0E
:100CD000236A01E0054C636A01F01F02012494407D
:100CE0001C400CB1012000E0002010BD00100240AB
:100CF00000210B4A11700A4A203A82F8201001287C
:100D000002D0042808D103E00121054A117004E053
:100D10000521034A117000E000BF00BF70470000CA
:100D20002010024001490860704700003C04424224
:100D30000249096A0143014A1162704700100240EA
:100D4000024909888143014A118070470428004004
:100D50000348008840F010000149088070470000F7
:100D600004280040034800884FF6EF71084001490D
:100D7000088070470428004070B500260024002534
:100D800000F07AF806463848B6FBF0F43748008899
:100D9000A0423CD035490C8040F2B27510E02846A4
:100DA000FFF730FE40B1B4F5B77F02D3A4F5B774B6
:100DB00004E0681C85B206E0A4F26D14681C85B2DC
:100DC000B4F5B67FEBD800BF29488580002516E032
:100DD00027498888FFF716FE30B1012D04D11D2C5C
:100DE00001D31D3C09E00CE02248405DA04203D83D
:100DF0002048405D241A00E003E0681C85B21C2CEA
:100E0000E6D200BF681C1A498871601CC871164878
:100E1000B6FBF0F100FB11644FF46160B4FBF0F03D
:100E2000134908704FF46160B4FBF0F100FB11400E
:100E30003C21B0FBF1F00E4948704FF46160B4FB07
:100E4000F0F100FB11403C21B0FBF1F201FB12007C
:100E5000074988700B46DA799979988800F028F864
:100E600003490872002070BD805101004600002037
:100E700058000020101B0008002103480188001FB3
:100E8000008841EA004070471C28004001460020CD
:100E9000064A12880A40D0B2044A121F12880A4039
:100EA00012B108B1012000E0002070470428004082
:100EB000F0B503460C461546642093FBF0F0C6B22D
:100EC000642093FBF0F700FB1730C1B2132E02DD54
:100ED00001F16400C1B20846CF1701EB977701EB2F
:100EE000A707BAB2072092FBF0F700FB172082B2E7
:100EF0005719601EDFF82CC01CF80000384482B27D
:100F0000CF1701EB9777BF10A1EB87071FB9032C11
:100F100001DA501E82B2072092FBF0F700FB172087
:100F2000C0B2F0BD041B00080EB50120FFF7AEFFF4
:100F300008B1FFF721FF0220FFF7A8FFA0B10220B0
:100F4000FFF7FEFEFFF718FF0A4880780949497845
:100F5000084A1278CDE9002102900648C3798279C7
:100F6000818805A0FFF758F90520FFF7E9FE00F09A
:100F700015F90EBD58000020416C61726D20546956
:100F80006D653A25642D25642D25642025643A2558
:100F9000643A25640A00000029B1064A1288024317
:100FA000044B1A8004E0034A12888243014B1A80E2
:100FB00070470000002800401CB5002401214FF0BC
:100FC000C050FFF741FE0120FFF72AFE0420FFF783
:100FD0009FFB45F25001884240D0FFF791FB012072
:100FE000FFF786FE04E0601CC4B20A2000F008FB94
:100FF0004120FFF75FFE08B9FA2CF4DBFA2C01DB85
:1010000001201CBD4FF48070FFF792FE0120FFF716
:1010100089FE00F0C3F800F0CBF801210846FFF785
:10102000BBFF00F0BBF8FFF793FE47F6FF7000F040
:10103000A5F800F0B3F837202A2111230E22CDE9BC
:101040000010012140F2DF7000F026F8FFF78AFE61
:1010500045F250010420FFF769FB07E000F0A8F813
:1010600001210846FFF798FF00F098F800F004F817
:10107000FFF782FE0020C4E708B503208DF80000CA
:1010800000208DF801008DF8020001208DF803008A
:101090006846FFF783FD08BD2DE9F05F06460F4661
:1010A00090469946DDE90AAB002440F2B2708642D0
:1010B00003DB40F63300864202DD0120BDE8F09FED
:1010C00040F2B2750AE02846FFF79CFC10B12048B8
:1010D000044401E01F480444681C85B2B542F2DBB9
:1010E000781EC7B2002510E01B48405D40F2A321E6
:1010F000484304EBC0143046FFF784FC18B1012DBF
:1011000001D116480444681C85B2BD42ECDBA8F14D
:10111000010040F2A321484304EBC014C9EB49107D
:10112000C0EB092004EB0014CAEB0A1004EB8004A6
:101130005C4401214FF0C050FFF786FD0120FFF70E
:101140006FFD204600F00CF800F028F80020B5E70D
:101150000085E2018033E101101B0008805101008D
:1011600000B50246FFF7F4FD100C03490880091D85
:101170000A80FFF7F7FD00BD1828004000B50246C1
:10118000FFF7E6FDC2F3034003490880091D0A800A
:10119000FFF7E8FD00BD00000828004000BF03483D
:1011A000008800F020000028F9D070470428004093
:1011B000074800884FF6F77108400549088000BFCE
:1011C0000348008800F008000028F9D070470000AC
:1011D00004280040704710B500F002F810BD000070
:1011E0000CB50020019000903348006840F4803036
:1011F0003149086000BF3048006800F400300090BA
:101200000198401C0190009818B90198B0F5A06FA2
:10121000F1D12948006800F4003010B1012000909D
:1012200001E0002000900098012843D12348006885
:1012300040F01000214908600846006820F00300D3
:1012400008600846006840F0020008601A484068DC
:10125000194948600846406848600846406840F4BC
:10126000806048600846406820F47C10486008466A
:10127000406840F4E81048600846006840F080701C
:10128000086000BF0C48006800F000700028F9D02A
:101290000948406820F00300074948600846406854
:1012A00040F00200486000BF0348406800F00C00B6
:1012B0000828F9D10CBD00000010024000200240B7
:1012C000042808D14FF0E021096941F004014FF0F2
:1012D000E022116107E04FF0E021096921F00401EB
:1012E0004FF0E022116170477047000010B51348BD
:1012F000006840F001001149086008464068104944
:1013000008400E494860084600680E4908400B49ED
:1013100008600846006820F480200860084640689D
:1013200020F4FE0048604FF41F008860FFF753FF71
:101330004FF000600449086010BD0000001002403A
:101340000000FFF8FFFFF6FE08ED00E010B50121F8
:10135000064800F04EF840B10121044800F03AF888
:1013600003480068401C0249086010BD00040040AA
:10137000240000207FB505460C4601210220FFF71E
:1013800063FCADF80850ADF804400020ADF80A0049
:10139000ADF8060001A90E4800F046F801221146FA
:1013A0000B4800F037F81D208DF8000000208DF864
:1013B000010003208DF8020001208DF8030068462B
:1013C000FFF7ECFB0121024800F007F87FBD0000A9
:1013D00000040040CA430282704721B1028842F0F3
:1013E0000102028004E002884FF6FE731A40028078
:1013F000704730B50246002000230024158A05EA14
:101400000103958905EA010413B10CB1012000E044
:10141000002030BD1AB183890B43838102E08389A8
:101420008B43838170470000002202881D4B984245
:101430000ED01D4B98420BD0B0F1804F08D01B4B03
:10144000984205D01A4B984202D01A4B984204D1C8
:101450004FF68F731A404B881A43174B984207D0A8
:10146000164B984204D04FF6FF431A40CB881A43DC
:1014700002808B8883850B8803850A4B98420BD0AA
:10148000094B984208D00E4B984205D00D4B98421C
:1014900002D00D4B984201D10B7A0386012383823F
:1014A00070470000002C014000340140000400405F
:1014B00000080040000C00400010004000140040F4
:1014C00000400140004401400048014010B540F296
:1014D00025511D4800F03EF810B31B4800F064F899
:1014E000C4B21A48008800F40040C8B91748008800
:1014F00000F4804060B10A2C03D00020134908801A
:1015000020E01248008840F400401049088019E0AB
:101510000D2C06D10D48008840F480400B4908800E
:1015200010E00A480088C0F30D0009490C54074830
:101530000088401C0549088008460088C72801DD4E
:101540000020088010BD0000003801405400002039
:101550006200002070B50246002400230025002010
:1015600040F66A16B14200D100BFC1F3421501F046
:101570001F03012606FA03F3012D02D19689334099
:1015800006E0022D02D1168A334001E0968A3340EC
:101590000C12012606FA04F41688344013B10CB17B
:1015A000012000E0002070BD01468888C0F30800DB
:1015B000704700BFFEE7014600BF704710B56FF0EF
:1015C0000400FFF77DFE0A4800680A49B0FBF1F00D
:1015D000094908700846007800EB4001C1EBC010D3
:1015E0004FF6FF7101EAC0000449088010BD0000F9
:1015F0001000002000127A004A0000204C00002059
:101600000146114A12884A434FF0E0235A610022F2
:101610009A611A46126942F001021A6100BF4FF046
:10162000E022106900F001021AB100F48032002AB1
:10163000F5D04FF0E022126922F001024FF0E023D2
:101640001A6100229A6170474C0000200146114A3D
:1016500012784A434FF0E0235A6100229A611A46F9
:10166000126942F001021A6100BF4FF0E0221069D6
:1016700000F001021AB100F48032002AF5D04FF0D8
:10168000E022126922F001024FF0E0231A610022E9
:101690009A6170474A00002000BF054A128802F094
:1016A0004002002AF9D0C2B2014B1B1D1A807047BC
:1016B000003801401FB50026002003908146824675
:1016C000FFF77CFF4FF4A060FFF7A0FAFFF726FAC0
:1016D000FFF772FCFEF7CEFF41F61F410920FFF72E
:1016E00049FEFFF7ADF90CE208F101086420FFF7AD
:1016F00087FFFE480068D8B9002713E0FFF736FAE5
:101700008346FFF733FA029000200090034602461A
:10171000594601900298FFF7F3F83220FFF770FF67
:10172000781CC7B2202FE9DB0320F0490860E8E10C
:10173000EE480068012824D1ED488078B04203D0FB
:10174000EB488678FFF7CEF80020FFF797F90446BC
:101750009CB1012C04D0022C06D0032C0CD107E044
:101760000020E249086007E00320E049086003E048
:101770000220DE49086000BFC3E10A20FFF740FFF6
:10178000BFE1DA480068022806D1DA48D0F800A0A4
:101790000520D6490860B4E1D448006805286CD11A
:1017A000D4480068A0EB0A00D349884202D901203E
:1017B000CE490860CE488078B0420FD0CC488678B9
:1017C00000200121CA4ACDE9001051781078022387
:1017D0000022FFF795F8C748D0F80090C548006888
:1017E000A0EB0900B0F5FA7F09D900200090C04AAB
:1017F00001905178107800231A46FFF781F80020F5
:10180000FFF73CF90446002C91D0012C04D0022CA7
:101810002AD0032C30D12BE0B54800780A2190FB68
:10182000F1F0C0B28DF80C00B148007890FBF1F2F5
:1018300001FB1200C0B28DF80D00AD48407890FB5E
:10184000F1F0C0B28DF80E00A948407890FBF1F29B
:1018500001FB1200C0B28DF80F0000254FF0000808
:101860000420A249086007E00020A049086003E0C6
:1018700003209E49086000BF43E19C48006803289C
:1018800018D1002000900346022208210190072071
:10189000FFF736F84FF47A70FFF7B2FE4FF47A7024
:1018A000FFF7AEFE4FF47A70FFF7AAFE02208F49D1
:1018B000086026E18D4800680428DDD135B1012D8E
:1018C0001ED0022D36D0032D6AD14EE000200090AC
:1018D00001909DF80F209DF80E3003EB830302EB7F
:1018E0004302D1B29DF80D209DF80C3003EB830329
:1018F00002EB4302D0B200230322FFF701F84FE0CE
:101900000020009001909DF80F209DF80E3003EB11
:10191000830302EB4302D1B29DF80D209DF80C30F9
:1019200003EB830302EB4302D0B203230022FEF752
:10193000E7FF35E000200321CDE900109DF80F20DE
:101940009DF80E3003EB830302EB4302D1B29DF806
:101950000D209DF80C3003EB830302EB4302D0B261
:1019600000231A46FEF7CCFF1AE003200021CDE940
:1019700000109DF80F209DF80E3003EB830302EB5F
:101980004302D1B29DF80D209DF80C3003EB830388
:1019900002EB4302D0B200231A46FEF7B1FF00BFAC
:1019A00000BF0020FFF76AF80446002C7ED0012C0F
:1019B00004D0022C0BD0032C08D161E0032D02DAF5
:1019C000681CC5B202E00220484908608DE035B1CC
:1019D000012D13D0022D33D0032D4FD13FE09DF8C0
:1019E0000C00022806DA9DF80C00401CC0B28DF8ED
:1019F0000C0002E000208DF80C003FE09DF80C0088
:101A000002280ED19DF80D00032806DA9DF80D007E
:101A1000401CC0B28DF80D0011E000208DF80D00C3
:101A20000DE09DF80D00092806DA9DF80D00401C18
:101A3000C0B28DF80D0002E000208DF80D001DE011
:101A40009DF80E00052806DA9DF80E00401CC0B275
:101A50008DF80E0002E000208DF80E000EE09DF8DB
:101A60000F00092806DA9DF80F00401CC0B28DF85F
:101A70000F0002E000208DF80F0000BF00BF34E02F
:101A80009DF80D009DF80C1001EB810100EB410069
:101A9000182826DA9DF80F009DF80E1001EB810141
:101AA00000EB41003C281CDA002100E026E09DF814
:101AB0000F009DF80E2002EB820200EB4200C0B244
:101AC000CDE900019DF80D009DF80C1001EB81019E
:101AD00000EB4100C3B2082207214FF4FC60FFF77E
:101AE000DBFA02200149086000BF0AE00C00002078
:101AF0005800002024000020E09304000A20FFF793
:101B00007FFDF1E50003030601040602050003055D
:101B10001F1C1F1E1F1E1F1F1E1F1E1F3C1B0008F9
:101B200000000020580000006C010008941B000811
:101B3000580000203807000088010008000000005D
:101B400000000000000000000000000000A24A04A5
:101B5000000000000000000001020304060708095D
:101B60000000000000040200040008001000200033
:101B70004000800000010002000000000100000899
:101B8000010800000100000000000000000000004B
:041B90000000000051
:04000005080001D519
:00000001FF
